:100000000C9438000C94FA050C940C060C945500D2
:100010000C9455000C9455000C9455000C9455000C
:100020000C9455000C9455000C94BC050C94550090
:100030000C9455000C9452030C9416030C94550028
:100040000C9455000C9455000C9455000C945500DC
:100050000C9455001B5B6D001B5B3F323568001B29
:100060005B3F32356C001B5B3B48001B5B324A0038
:1000700011241FBECFE5D8E0DEBFCDBF11E0A0E662
:10008000B0E0E8E7F2E102C005900D92AA34B107B2
:10009000D9F721E0AAE4B1E001C01D92A83AB20765
:1000A000E1F70E94D6050C943A090C94000081E017
:1000B0000E94EB0165E082E00E94750283E790E018
:1000C0000E94B40265E083E00E94750289E990E035
:1000D0000E94B40265E084E00E94750287EC90E023
:1000E0000E94B40265E085E00E9475028FEC90E00A
:1000F0000E94B40265E086E00E94750282EE90E004
:100100000C94B40281E00E94EB0165E082E00E9461
:10011000750288E091E00E94B40265E085E00E94EB
:10012000750283E291E00C94B402CF93DF931F92A7
:10013000CDB7DEB781E00E94F4010E943D038983C0
:100140000E94820089818137C1F781E00F90DF91A1
:10015000CF910C94F40181E00E94EB0165E082E014
:100160000E9475028AE391E00E94B40265E085E096
:100170000E94750283E291E00C94B402CF93DF9366
:100180001F92CDB7DEB781E00E94F4010E943D03CB
:1001900089830E94AB0089818137C1F781E00F908C
:1001A000DF91CF910C94F4010E9457000E943D030F
:1001B000813311F40C94BE00823311F40C94950039
:1001C000813711F40C94B1050895A69AA79AA49AC0
:1001D000A39AA59A8D9A8C9A0895CF93DF93EB01F9
:1001E000F901128213821482158211821082978380
:1001F00086837187608753874287BC016F5F7F4F1B
:100200008FEF9FE70E941D0675876487BE016F5FB1
:100210007F4F82E19AE70E941D06CB01AA2797FD36
:10022000A095BA2F86879787A08BB18BDF91CF914E
:100230000895CF92DF92EF92FF920F931F93CF9387
:10024000DF93EB01FA019C01261B370B8485958512
:10025000821793071CF48FEF9FE712C09195819549
:100260009109281739071CF481E090E809C04681FC
:100270005781429FC001439F900D529F900D1124C2
:1002800090935701809356016085718561157105C2
:1002900009F446C0442737FD4095542F828193814D
:1002A000A481B581280F391F4A1F5B1F868597855A
:1002B000A089B18982179307A407B5072CF442E1FE
:1002C0005AE760E070E010C0B095A09590958195D8
:1002D0009F4FAF4FBF4F281739074A075B078CF472
:1002E0004EEE55E86FEF7FEF409358015093590160
:1002F00060935A0170935B0182839383A483B583D7
:100300000FC02283338344835583DB010E94500650
:10031000609358017093590180935A0190935B0147
:10032000808191818C1B9D0B22853385829F80016A
:10033000839F100D929F100D112410935D01009367
:100340005C01D183C0836091560170915701882769
:1003500077FD8095982FC0905801D0905901E0907A
:100360005A01F0905B016C0D7D1D8E1D9F1D222793
:1003700017FD2095322F600F711F821F931F20E8F9
:1003800030E040E050E00E943106213080E838073C
:100390008FEF4807580724F421E030E84FEF5FEF74
:1003A000DA01C901811520E89207A105B10524F001
:1003B0008FEF9FE7A0E0B0E0DF91CF911F910F9109
:1003C000FF90EF90DF90CF900895FC01128213828E
:1003D000148215820895882319F08FE590E002C0F9
:1003E00088E590E00C94C002CF93C82F84E590E09C
:1003F0000E94C0028C2F0E94EB018BE690E00E94CD
:10040000C00286E690E0CF910C94C0020F931F9338
:10041000CF93DF931F92CDB7DEB7082F10E01617EA
:1004200039F0802F69830E949F021F5F6981F7CF97
:100430000F90DF91CF911F910F9108951F93CF934C
:10044000DF9300D0CDB7DEB7182F8BE14A836983E5
:100450000E949F028BE50E949F0280E3810F0E9411
:100460009F028BE30E949F0283E30E949F026981A7
:1004700080E3860F0E949F028BE30E949F0284E329
:100480000E949F024A8180E3840F0E949F028DE6B2
:100490000F900F90DF91CF911F910C949F02CF93FB
:1004A000C82F8BE10E949F028BE50E949F0283E38D
:1004B0000E949F0280E38C0F0E949F028DE6CF91E5
:1004C0000C949F02CF93C82F8BE10E949F028BE573
:1004D0000E949F0284E30E949F0280E38C0F0E948F
:1004E0009F028DE6CF910C949F02CF93DF93D82F7C
:1004F000C62F8BE10E949F028BE50E949F026D2F09
:1005000070E080E090E04AE00E94CF028BE30E941E
:100510009F026C2F70E080E090E04AE00E94CF02E2
:1005200088E4DF91CF910C949F0290BD89B988E156
:100530008AB986E880BD8AB188698AB908955D9BC9
:10054000FECF8CB9089590915E019F5F9F702091BE
:100550005F019217E1F3E92FF0E0E05AFE4F80834C
:1005600090935E01559A0895CF93DF93EC018991A2
:10057000882319F00E949F02FACFDF91CF9108954E
:10058000CF93DF93FC018491EF012196882321F022
:100590000E949F02FE01F7CFDF91CF910895CF9384
:1005A000DF93CDB7DEB761970FB6F894DEBF0FBE0D
:1005B000CDBF242F30E0AE014F5F5F4F0E94D408C3
:1005C000CE0101960E94B40261960FB6F894DEBF88
:1005D0000FBECDBFDF91CF910895CF93DF93EC0194
:1005E0008991882319F00E94A302FACFDF91CF915D
:1005F0000895CF93DF93CDB7DEB761970FB6F89428
:10060000DEBF0FBECDBFAB01BE016F5F7F4F0E944B
:10061000BE08CE0101960E94ED0261960FB6F894D5
:10062000DEBF0FBECDBFDF91CF9108951F920F9215
:100630000FB60F9211248F939F93EF93FF93909196
:100640005E0180915F01981771F080915F018F5F6B
:100650008F7080935F01E0915F01F0E0E05AFE4F00
:1006600080818CB901C05598FF91EF919F918F9136
:100670000F900FBE0F901F90189590917001809170
:100680007101981769F0809171018F5F8F7180936C
:100690007101E0917101F0E0EE58FE4F8081089504
:1006A00080E008951F920F920FB60F9211248F933E
:1006B0009F93EF93FF938CB1E0917001EF5FEF7127
:1006C00090917101E91731F0E0937001F0E0EE587C
:1006D000FE4F8083FF91EF919F918F910F900FBEFE
:1006E0000F901F9018954F925F926F927F928F920A
:1006F0009F92AF92BF92CF92DF92EF92FF920F93B1
:100700001F93CF93DF934B015C016091600070E019
:1007100080E090E00E94A7076B017C01A501940195
:100720000E94A8062B013C0120E030E040EF51E49C
:100730000E94570818162CF48EE190E09BBD8ABDEC
:1007400012C0A5019401C701B6010E94A90620E0CC
:1007500030E040EF51E40E945708181624F48EE16F
:1007600090E099BD88BD20E030E0A901C301B2014D
:100770000E940D0787FF03C01BBC1ABC06C0C30143
:10078000B2010E9479077BBD6ABDA5019401C70132
:10079000B6010E94A9066B017C0120E030E0A901AE
:1007A0000E940D0787FF03C019BC18BC06C0C70113
:1007B000B6010E94790779BD68BDC6EAD1E008E6B6
:1007C00010E0B12CC12CD12C76019A918A918536FA
:1007D000910590F0F8016081772767FD7095872F6C
:1007E000972F0E94A7079B01AC01C701B6010E9489
:1007F000A9066B017C01B39401501109F1E0C639DF
:10080000DF0719F7B11008C01BBC1ABC19BC18BC13
:1008100060E070E0CB010CC06B2D70E080E090E0F8
:100820000E94A7079B01AC01C701B6010E941107F6
:10083000DF91CF911F910F91FF90EF90DF90CF90BC
:10084000BF90AF909F908F907F906F905F904F90F0
:1008500008954F925F926F927F928F929F92AF9284
:10086000BF92CF92DF92EF92FF92CF93DF9300D0AF
:1008700000D0CDB7DEB70E94A8066B017C012091A5
:100880006D0030916E0040916F00509170000E9499
:100890005B084B015C0120E030E0A901C701B60113
:1008A0000E940D07811108C010924E0110924F0155
:1008B000109250011092510120914E0130914F0140
:1008C0004091500150915101C701B6010E94A90603
:1008D00060934E0170934F018093500190935101AA
:1008E0002091920130919301409194015091950192
:1008F0000E945B082B013C0120914A0130914B0181
:1009000040914C0150914D01C701B6010E94A806CB
:100910002091690030916A0040916B0050916C0009
:100920000E945B0869837A838B839C83C0924A010F
:10093000D0924B01E0924C01F0924D01A301920143
:10094000C501B4010E94A90629813A814B815C81CD
:100950000E94A9066B017C0120E030E040EB51E4ED
:100960000E94570818168CF020E030E040EB51EC64
:10097000C701B6010E940D0787FF0DC0C12CD12C05
:1009800080EBE82E81ECF82E06C0C12CD12C90EB28
:10099000E92E91E4F92EC701B6010F900F900F9048
:1009A0000F90DF91CF91FF90EF90DF90CF90BF90AD
:1009B000AF909F908F907F906F905F904F90089531
:1009C0003E9A3D9A86B1866886B9089597B1877038
:1009D000987F892B87B9369A3699FECF85B190E0FA
:1009E00008951F93CF93DF93C6E9D1E010E0812FE4
:1009F0000E94E604899399931F5F1830C1F7DF9135
:100A0000CF911F91089583B7886083BF83B78560B6
:100A100083BF8AE08CBF89B7826089BF08958FB594
:100A200081608FBD8EB588608EBD8FB5806A8FBDA9
:100A30008EB583608EBD8CE890E09BBD8ABD99BD6C
:100A400088BD0895A19AA09AA898A998A99AA89A49
:100A500087B38F6087BB0895BC98C49A08958A981D
:100A60008B9882B38C6082BB85B78A6085BF8BB759
:100A7000806C8BBF0895EF92FF920F931F93CF93DB
:100A800050915301552311F0561365C0FC0190811C
:100A90009623C1E080915201992311F0C0E008C073
:100AA000811106C0C093520182E38093A60149C020
:100AB000882309F446C0CC2379F08130D1F48091A9
:100AC000A60181113EC082E0809352018EE18093A5
:100AD000A6016093530135C08250823090F5011514
:100AE000110511F0F801099510925201109253016D
:100AF00028C0823079F48091A601811122C021158D
:100B0000310511F426E930E083E08093520120930F
:100B1000A60117C0833041F48091A601811111C054
:100B200084E0809352010DC0843059F48091A60175
:100B3000811107C04093A601E114F10411F0F701FF
:100B4000099580915201833030F0C11104C0109298
:100B5000520110925301CF911F910F91FF90EF908E
:100B600008958091A701882319F01092A701089594
:100B700081E08093A70108951F920F920FB60F9204
:100B800011248F9380917200882319F081508093F3
:100B900072008091A601882319F081508093A601EC
:100BA0008F910F900FBE0F901F901895C12CD12CD4
:100BB00076010E942F050E94E0040E9403050E9416
:100BC0000F050E94E5000E9422050E942C0587E483
:100BD00090E00E9495027894C701B6010E947303C9
:100BE0009B01AC0160E070E0CB010E9429046B0125
:100BF0007C01F2CF1F920F920FB60F9211248F93A8
:100C00009F9385B391E0892785BB9F918F910F902A
:100C10000FBE0F901F9018951F920F920FB60F9254
:100C200011248F93809154018F5F809354018F9191
:100C30000F900FBE0F901F90189597FB072E16F47C
:100C4000009407D077FD09D00E94580607FC05D014
:100C50003EF4909581959F4F0895709561957F4FD3
:100C60000895052E97FB1EF400940E94480657FD38
:100C700007D00E946C0607FC03D04EF40C94480683
:100C800050954095309521953F4F4F4F5F4F0895B8
:100C900090958095709561957F4F8F4F9F4F0895E8
:100CA000B7FF0C948E060E948E06821B930B08954C
:100CB000AA1BBB1B51E107C0AA1FBB1FA617B70782
:100CC00010F0A61BB70B881F991F5A95A9F780959E
:100CD0009095BC01CD010895A1E21A2EAA1BBB1B61
:100CE000FD010DC0AA1FBB1FEE1FFF1FA217B307F8
:100CF000E407F50720F0A21BB30BE40BF50B661F0E
:100D0000771F881F991F1A9469F7609570958095D1
:100D100090959B01AC01BD01CF0108950E949906F9
:100D2000A59F900DB49F900DA49F800D911D11243F
:100D30000895A29FB001B39FC001A39F700D811DB4
:100D40001124911DB29F700D811D1124911D0895D4
:100D50005058BB27AA270ED070C161D130F066D1A0
:100D600020F031F49F3F11F41EF456C10EF4E095CB
:100D7000E7FB4CC1E92F72D180F3BA176207730702
:100D80008407950718F071F49EF58AC10EF4E0957A
:100D90000B2EBA2FA02D0B01B90190010C01CA0135
:100DA000A0011124FF27591B99F0593F50F4503EE0
:100DB00068F11A16F040A22F232F342F4427585FD2
:100DC000F3CF469537952795A795F0405395C9F7EA
:100DD0007EF41F16BA0B620B730B840BBAF09150A2
:100DE000A1F0FF0FBB1F661F771F881FC2F70EC041
:100DF000BA0F621F731F841F48F487957795679514
:100E0000B795F7959E3F08F0B3CF9395880F08F0FC
:100E10009927EE0F979587950895D4D008F481E02F
:100E200008950CD00AC102D140F0F9D030F021F47D
:100E30005F3F19F0EBC0511134C1EEC00FD198F3F0
:100E40009923C9F35523B1F3951B550BBB27AA274B
:100E500062177307840738F09F5F5F4F220F331FBD
:100E6000441FAA1FA9F333D00E2E3AF0E0E830D089
:100E700091505040E695001CCAF729D0FE2F27D08C
:100E8000660F771F881FBB1F261737074807AB075A
:100E9000B0E809F0BB0B802DBF01FF2793585F4FCF
:100EA0002AF09E3F510568F0B1C0FBC05F3FECF3F4
:100EB000983EDCF3869577956795B795F7959F5F94
:100EC000C9F7880F911D9695879597F90895E1E0E8
:100ED000660F771F881FBB1F621773078407BA0747
:100EE00020F0621B730B840BBA0BEE1F88F7E095A2
:100EF0000895BCD088F09F5790F0B92F9927B7512B
:100F0000A0F0D1F0660F771F881F991F1AF0BA95CD
:100F1000C9F712C0B13081F0C3D0B1E00895C0C0AC
:100F2000672F782F8827B85F39F0B93FCCF38695C3
:100F300077956795B395D9F73EF490958095709520
:100F400061957F4F8F4F9F4F0895E89409C097FB9D
:100F50003EF490958095709561957F4F8F4F9F4F90
:100F60009923A9F0F92F96E9BB279395F6958795D4
:100F700077956795B795F111F8CFFAF4BB0F11F497
:100F800060FF1BC06F5F7F4F8F4F9F4F16C088233E
:100F900011F096E911C0772321F09EE8872F762F74
:100FA00005C0662371F096E8862F70E060E02AF0B5
:100FB0009A95660F771F881FDAF7880F96958795A1
:100FC00097F90895990F0008550FAA0BE0E8FEEF76
:100FD00016161706E807F907C0F012161306E407FD
:100FE000F50798F0621B730B840B950B39F40A26F6
:100FF00061F0232B242B252B21F408950A2609F4D4
:10100000A140A6958FEF811D811D089597F99F67D7
:1010100080E870E060E008959FEF80EC0895002480
:101020000A941616170618060906089500240A944D
:1010300012161306140605060895092E0394000CD3
:1010400011F4882352F0BB0F40F4BF2B11F460FF62
:1010500004C06F5F7F4F8F4F9F4F089557FD90588B
:10106000440F551F59F05F3F71F04795880F97FB6C
:10107000991F61F09F3F79F0879508951216130626
:101080001406551FF2CF4695F1DF08C01616170655
:101090001806991FF1CF869571056105089408958A
:1010A000E894BB2766277727CB0197F908958ADF55
:1010B00008F48FEF08950BD0C0CFB1DF28F0B6DF72
:1010C00018F0952309F0A2CFA7CF1124EACFC6DFED
:1010D000A0F3959FD1F3950F50E0551F629FF0014B
:1010E000729FBB27F00DB11D639FAA27F00DB11DA4
:1010F000AA1F649F6627B00DA11D661F829F22272D
:10110000B00DA11D621F739FB00DA11D621F839FB3
:10111000A00D611D221F749F3327A00D611D231F89
:10112000849F600D211D822F762F6A2F11249F57D7
:1011300050408AF0E1F088234AF0EE0FFF1FBB1FFA
:10114000661F771F881F91505040A9F79E3F510599
:1011500070F05CCFA6CF5F3FECF3983EDCF3869552
:1011600077956795B795F795E7959F5FC1F7FE2B44
:10117000880F911D9695879597F9089545325105E9
:1011800020F4423010F00C94C908FB011082CB010E
:101190000895BB274A3031F4992322F4BDE290959B
:1011A00081959F4F0C9411092532310520F422308E
:1011B00010F00C94DF08FA011082CA010895BB27D1
:1011C0002A3051F4992342F4BDE2909580957095B0
:1011D00061957F4F8F4F9F4F0C94EF08BB27FA010B
:1011E000A62F6217710581059105330B30FB66F060
:1011F000AA27660F771F881F991FAA1FA21710F032
:10120000A21B63953850A9F7A05DAA3308F0A95D29
:10121000A19336F7B111B1931082CA010C942A0937
:10122000BB27FB015527AA27880F991FAA1FA417C0
:1012300010F0A41B83955051B9F7A05DAA3308F0B4
:10124000A95DA193009779F7B111B1931192CB01E8
:101250000C942A09DC01FC01672F71917723E1F7D7
:10126000329704C07C916D9370836291AE17BF0773
:08127000C8F30895F894FFCFC4
:1012780014FFFDF8EC140803013333B34033338310
:10128800403C055779626965727A2031206162793C
:10129800207A6D69656E6963207573746177696515
:1012A8006E69612050574D2C006C756220322061A8
:1012B8006279207A6D69656E6963207573746177E8
:1012C80069656E696120726567756C61746F7261BA
:1012D800205049443A2000312E2050574D2E0032DC
:1012E8002E20526567756C61746F72205049442EC8
:1012F80020004E616369736E696A20277127206137
:1013080062792077726F63696320772074727962DB
:10131800206A617A64792E00557374617769656E05
:10132800696120726567756C61746F7261205049DC
:10133800443A004E616369736E696A2027712720F9
:101348006162792077796A7363005573746177698C
:0A135800656E69612050574D3A00A0
:00000001FF
