:100000000C9440000C94E2050C94F4050C945D00F3
:100010000C945D000C945D000C945D000C945D00EC
:100020000C945D000C945D000C94A6050C945D008E
:100030000C945D000C945A030C941E030C945D0008
:100040000C945D000C945D000C945D000C945D00BC
:100050000C945D00EE03F103F403F403F703FA03D9
:10006000FD03FD031B5B6D001B5B3F323568001B0E
:100070005B3F32356C001B5B3B48001B5B324A0028
:1000800011241FBECFE5D8E0DEBFCDBF11E0A0E652
:10009000B0E0E8E2FEE002C005900D92A63CB10798
:1000A000D9F722E0A6ECB1E001C01D92AD32B20753
:1000B000E1F70E94C0050C9412070C94000081E047
:1000C0000E94F30165E082E00E947D0284E690E0F8
:1000D0000E94BC0265E083E00E947D028AE890E015
:1000E0000E94BC0265E084E00E947D0288EB90E003
:1000F0000E94BC0265E085E00E947D0280EC90E0F9
:100100000E94BC0265E086E00E947D0283ED90E0E3
:100110000C94BC0281E00E94F30165E082E00E9441
:100120007D0289EF90E00E94BC0265E085E00E94BC
:100130007D0284E191E00C94BC02CF93DF931F9287
:10014000CDB7DEB781E00E94FC010E9445038983A0
:100150000E948A0089818137C1F781E00F90DF9189
:10016000CF910C94FC0181E00E94F30165E082E0F4
:100170000E947D028BE291E00E94BC0265E085E076
:100180000E947D0284E191E00C94BC02CF93DF9346
:100190001F92CDB7DEB781E00E94FC010E944503AB
:1001A00089830E94B30089818137C1F781E00F9074
:1001B000DF91CF910C94FC010E945F000E944503E7
:1001C000813311F40C94C600823311F40C949D0019
:1001D000813711F40C949B050895A69AA79AA49AC6
:1001E000A39AA59A8D9A8C9A0895CF93DF93EB01E9
:1001F000F901128213821482158211821082978370
:1002000086837187608753874287BC016F5F7F4F0A
:100210008FEF9FE70E94050675876487BE016F5FB9
:100220007F4F82E19AE70E940506CB01AA2797FD3E
:10023000A095BA2F86879787A08BB18BDF91CF913E
:100240000895CF92DF92EF92FF920F931F93CF9377
:10025000DF93EB01FA019C01261B370B8485958502
:10026000821793071CF48FEF9FE712C09195819539
:100270009109281739071CF481E090E809C04681EC
:100280005781429FC001439F900D529F900D1124B2
:100290009093CE018093CD016085718561157105C4
:1002A00009F446C0442737FD4095542F828193813D
:1002B000A481B581280F391F4A1F5B1F868597854A
:1002C000A089B18982179307A407B5072CF442E1EE
:1002D0005AE760E070E010C0B095A09590958195C8
:1002E0009F4FAF4FBF4F281739074A075B078CF462
:1002F0004EEE55E86FEF7FEF4093CF015093D00162
:100300006093D1017093D20182839383A483B583D8
:100310000FC02283338344835583DB010E943E0652
:100320006093CF017093D0018093D1019093D2015B
:10033000808191818C1B9D0B22853385829F80015A
:10034000839F100D929F100D11241093D4010093E0
:10035000D301D183C0836091CD017091CE018827F4
:1003600077FD8095982FC090CF01D090D001E0907C
:10037000D101F090D2016C0D7D1D8E1D9F1D222795
:1003800017FD2095322F600F711F821F931F20E8E9
:1003900030E040E050E00E941906213080E8380744
:1003A0008FEF4807580724F421E030E84FEF5FEF64
:1003B000DA01C901811520E89207A105B10524F0F1
:1003C0008FEF9FE7A0E0B0E0DF91CF911F910F91F9
:1003D000FF90EF90DF90CF900895FC01128213827E
:1003E000148215820895882319F08FE690E002C0E8
:1003F00088E690E00C94C802CF93C82F84E690E082
:100400000E94C8028C2F0E94F3018BE790E00E94AB
:10041000C80286E790E0CF910C94C8020F931F9317
:10042000CF93DF931F92CDB7DEB7082F10E01617DA
:1004300039F0802F69830E94A7021F5F6981F7CF7F
:100440000F90DF91CF911F910F9108951F93CF933C
:10045000DF9300D0CDB7DEB7182F8BE14A836983D5
:100460000E94A7028BE50E94A70280E3810F0E94F1
:10047000A7028BE30E94A70283E30E94A70269817F
:1004800080E3860F0E94A7028BE30E94A70284E309
:100490000E94A7024A8180E3840F0E94A7028DE692
:1004A0000F900F90DF91CF911F910C94A702CF93E3
:1004B000C82F8BE10E94A7028BE50E94A70283E36D
:1004C0000E94A70280E38C0F0E94A7028DE6CF91C5
:1004D0000C94A702CF93C82F8BE10E94A7028BE553
:1004E0000E94A70284E30E94A70280E38C0F0E946F
:1004F000A7028DE6CF910C94A702CF93DF93D82F5C
:10050000C62F8BE10E94A7028BE50E94A7026D2FE8
:1005100070E080E090E04AE00E94D7028BE30E9406
:10052000A7026C2F70E080E090E04AE00E94D702C2
:1005300088E4DF91CF910C94A70290BD89B988E13E
:100540008AB986E880BD8AB188698AB908955D9BB9
:10055000FECF8CB908959091D5019F5F9F70209137
:10056000D6019217E1F3E92FF0E0E952FE4F8083C4
:100570009093D501559A0895CF93DF93EC0189911B
:10058000882319F00E94A702FACFDF91CF91089536
:10059000CF93DF93FC018491EF012196882321F012
:1005A0000E94A702FE01F7CFDF91CF910895CF936C
:1005B000DF93CDB7DEB761970FB6F894DEBF0FBEFD
:1005C000CDBF242F30E0AE014F5F5F4F0E94AC06DD
:1005D000CE0101960E94BC0261960FB6F894DEBF70
:1005E0000FBECDBFDF91CF910895CF93DF93EC0184
:1005F0008991882319F00E94AB02FACFDF91CF9145
:100600000895CF93DF93CDB7DEB761970FB6F89417
:10061000DEBF0FBECDBFAB01BE016F5F7F4F0E943B
:100620009606CE0101960E94F50261960FB6F894E7
:10063000DEBF0FBECDBFDF91CF9108951F920F9205
:100640000FB60F9211248F939F93EF93FF93909186
:10065000D5018091D601981771F08091D6018F5FF6
:100660008F708093D601E091D601F0E0E952FE4F01
:1006700080818CB901C05598FF91EF919F918F9126
:100680000F900FBE0F901F9018959091E7018091E9
:10069000E801981769F08091E8018F5F8F7180936E
:1006A000E801E091E801F0E0E751FE4F8081089514
:1006B00080E008951F920F920FB60F9211248F932E
:1006C0009F93EF93FF938CB1E091E701EF5FEF71A0
:1006D0009091E801E91731F0E093E701F0E0E7518C
:1006E000FE4F8083FF91EF919F918F910F900FBEEE
:1006F0000F901F9018950E94DB04E9E0F2E080E083
:10070000219131912536310520F48F5F8830C1F772
:100710008AE00895AE9AAF9AAC9AAB9A0895809108
:10072000C60181110AC080E590E099BD88BD9BBDDE
:100730008ABD81E08093C601089582E390E099BD6F
:1007400088BD9BBD8ABD089584E690E099BD88BDB3
:1007500084E190E09BBD8ABD089584E690E099BD58
:1007600088BD85E090E09BBD8ABD08958AE590E054
:1007700099BD88BD88E290E09BBD8ABD089584E163
:1007800090E099BD88BD84E690E09BBD8ABD089548
:1007900085E090E099BD88BD84E690E09BBD8ABD70
:1007A000089588E290E099BD88BD8AE590E09BBD00
:1007B0008ABD0895AD98AE98AF9AAB98AC9A0E9456
:1007C0007B03C82ED12CE12CF12C88E0C816D10473
:1007D000B8F4F601E65DFF4F0C9438060E94A403BE
:1007E00013C00E94B60310C00E94AD030DC00E944A
:1007F000D1030AC00E94BF0307C00E94C80304C0FF
:1008000019BC18BC1BBC1ABC65E082E00E947D02CA
:100810008BE391E00E94BC0265E083E00E947D02D0
:100820008DE491E00E94BC026091090270910A027D
:1008300080E090E04AE00E94D7028AE591E00E94C1
:10084000BC0265E085E00E947D028DE591E00E949A
:10085000BC0260910B0270910C0280E090E04AE0D3
:100860000E94D7028AE591E00E94BC0265E087E021
:100870000E947D028AE691E00E94BC0260910D0216
:1008800070910E0280E090E04AE00E94D7028AE573
:1008900091E00E94BC0265E089E00E947D0287E74A
:1008A00091E00E94BC0260910F027091100280E002
:1008B00090E04AE00E94D7028AE591E00E94BC02E3
:1008C00065E08BE00E947D0284E891E00E94BC021A
:1008D000609111027091120280E090E04AE00E9463
:1008E000D7028AE591E00E94BC0265E08DE00E949B
:1008F0007D0281E991E00E94BC0260911302709137
:10090000140280E090E04AE00E94D7028AE591E07C
:100910000E94BC0265E08FE00E947D028EE991E0BA
:100920000E94BC02609115027091160280E090E076
:100930004AE00E94D7028AE591E00E94BC0265E08D
:1009400081E10E947D028BEA91E00E94BC026091ED
:1009500017027091180280E090E04AE00E94D702EE
:100960008AE591E00E94BC0265E084E10E947D027C
:1009700088EB91E00E94BC024AE0C701B6010E94E8
:10098000D7028AE591E00E94BC0265E086E10E9400
:100990007D0215CF3E9A3D9A86B1866886B9089544
:1009A00097B18770987F892B87B9369A3699FECF91
:1009B00085B190E008951F93CF93DF93C9E0D2E013
:1009C00010E0812F0E94D004899399931F5F183003
:1009D000C1F7DF91CF911F91089583B7886083BFDE
:1009E00083B7856083BF8AE08CBF89B7826089BF87
:1009F00008958FB581608FBD8EB588608EBD8FB52F
:100A0000806A8FBD8EB583608EBD8CE890E09BBD03
:100A10008ABD99BD88BD0895A19AA09AA898A99861
:100A2000A99AA89A87B38F6087BB0895BC98C49A87
:100A300008958A988B9882B38C6082BB85B78A6050
:100A400085BF8BB7806C8BBF0895EF92FF920F9399
:100A50001F93CF935091CA01552311F0561365C0CF
:100A6000FC0190819623C1E08091C901992311F086
:100A7000C0E008C0811106C0C093C90182E3809321
:100A80002B0249C0882309F446C0CC2379F0813079
:100A9000D1F480912B0281113EC082E08093C90184
:100AA0008EE180932B026093CA0135C08250823060
:100AB00090F50115110511F0F80109951092C90181
:100AC0001092CA0128C0823079F480912B028111E2
:100AD00022C02115310511F426E930E083E080932E
:100AE000C90120932B0217C0833041F480912B025F
:100AF000811111C084E08093C9010DC0843059F484
:100B000080912B02811107C040932B02E114F10464
:100B100011F0F70109958091C901833030F0C111BE
:100B200004C01092C9011092CA01CF911F910F9178
:100B3000FF90EF90089580912C02882319F0109275
:100B40002C02089581E080932C0208951F920F9249
:100B50000FB60F9211248F9380916300882319F0B0
:100B600081508093630080912B02882319F081507B
:100B700080932B028F910F900FBE0F901F901895AE
:100B80000E9419050E94CA040E94ED040E94F90403
:100B90000E94ED000E940C050E94160587E490E07B
:100BA0000E949D024091C7015091C80129E132E0A5
:100BB00060E070E080916000909161000E94F5001B
:100BC0007894FFCF1F920F920FB60F9211248F933C
:100BD0009F9385B391E0892785BB9F918F910F905B
:100BE0000FBE0F901F9018951F920F920FB60F9285
:100BF00011248F938091CB018F5F8093CB018F91D4
:100C00000F900FBE0F901F90189597FB072E16F4AC
:100C1000009407D077FD09D00E94460607FC05D056
:100C20003EF4909581959F4F0895709561957F4F03
:100C30000895052E97FB1EF400940E94300657FD80
:100C400007D00E945A0607FC03D04EF40C943006DD
:100C500050954095309521953F4F4F4F5F4F0895E8
:100C600090958095709561957F4F8F4F9F4F089518
:100C7000EE0FFF1F0590F491E02D0994B7FF0C943F
:100C80007C060E947C06821B930B0895AA1BBB1B4B
:100C900051E107C0AA1FBB1FA617B70710F0A61B7C
:100CA000B70B881F991F5A95A9F780959095BC019D
:100CB000CD010895A1E21A2EAA1BBB1BFD010DC098
:100CC000AA1FBB1FEE1FFF1FA217B307E407F507FC
:100CD00020F0A21BB30BE40BF50B661F771F881FD8
:100CE000991F1A9469F760957095809590959B016E
:100CF000AC01BD01CF0108950E948706A59F900D0C
:100D0000B49F900DA49F800D911D11240895A29F62
:100D1000B001B39FC001A39F700D811D1124911DCF
:100D2000B29F700D811D1124911D0895453251050A
:100D300020F4423010F00C94A106FB011082CB018C
:100D40000895BB274A3031F4992322F4BDE29095EF
:100D500081959F4F0C94E9062532310520F422300D
:100D600010F00C94B706FA011082CA010895BB274F
:100D70002A3051F4992342F4BDE290958095709504
:100D800061957F4F8F4F9F4F0C94C706BB27FA0189
:100D9000A62F6217710581059105330B30FB66F0B4
:100DA000AA27660F771F881F991FAA1FA21710F086
:100DB000A21B63953850A9F7A05DAA3308F0A95D7E
:100DC000A19336F7B111B1931082CA010C940207B6
:100DD000BB27FB015527AA27880F991FAA1FA41715
:100DE00010F0A41B83955051B9F7A05DAA3308F009
:100DF000A95DA193009779F7B111B1931192CB013D
:100E00000C940207DC01FC01672F71917723E1F755
:100E1000329704C07C916D9370836291AE17BF07C7
:080E2000C8F30895F894FFCF18
:100E280008003C055779626965727A203120616251
:100E380079207A6D69656E69632075737461776965
:100E4800656E69612050574D2C006C756220322008
:100E5800616279207A6D69656E6963207573746162
:100E68007769656E696120726567756C61746F7208
:100E780061205049443A2000312E2050574D2E0011
:100E8800322E20526567756C61746F722050494428
:100E98002E20004E616369736E696A2027712720CE
:100EA8006162792077726F63696320772074727941
:100EB80062206A617A64792E005573746177696576
:100EC8006E696120726567756C61746F726120501C
:100ED80049443A004E616369736E696A2027712735
:100EE800206162792077796A73630055737461773A
:100EF80069656E69612050574D3A005461626C69AA
:100F080063612073656E736F726F773A0073656EF5
:100F1800736F72735B305D3A200020200073656E3A
:100F2800736F72735B315D3A200073656E736F7215
:100F3800735B325D3A200073656E736F72735B3357
:100F48005D3A200073656E736F72735B345D3A208F
:100F58000073656E736F72735B355D3A200073655D
:100F68006E736F72735B365D3A200073656E736FD4
:100F780072735B375D3A200020706F6B617A5F7720
:060F8800796E696B200088
:00000001FF
